:100000000C9463000C94B6090C94E3090C948B00D7
:100010000C948B000C948B000C948B000C948B0034
:100020000C948B000C948B000C948B000C948B0024
:100030000C948B000C948B000C948B000C948B0014
:100040000C941F0A0C948B000C948F070C94D60709
:100050000C948B000C948B000C948B000C948B00F4
:100060000C948B000C948B000000000024002700EF
:100070002A0000000000250028002B0000000000DE
:1000800023002600290004040404040404040202DA
:100090000202020203030303030301020408102007
:1000A0004080010204081020010204081020000012
:1000B0000007000201000003040600000000000029
:1000C0000000D306130911241FBECFEFD8E0DEBF16
:1000D000CDBF11E0A0E0B1E0EAECF9E102C005908B
:1000E0000D92A031B107D9F712E0A0E1B1E001C053
:1000F0001D92A334B107E1F710E0C6ECD0E004C0D4
:100100002297FE010E94DF0CC23CD107C9F70E9472
:10011000100A0C94E30C0C9400000F931F93CF93E0
:10012000DF938C0197FF02C000E010E0EB0177FF46
:1001300002C0C0E0D0E088E061E00E94D90B87E017
:1001400060E00E94D90B89E061E00E94D90B8AE04F
:1001500060E00E94D90BB8010F3F110519F014F0AF
:100160006FEF70E086E00E943A0B9E01CF3FD10511
:1001700019F014F02FEF30E08BE0B9010E943A0B38
:10018000DF91CF911F910F9108952F923F924F923F
:100190005F926F927F928F929F92AF92BF92CF9217
:1001A000DF92EF92FF920F931F93DF93CF9300D0D4
:1001B00000D0CDB7DEB7AA24BB246501EE24FF240E
:1001C000870199E1292E312C412C512C0E94670A7C
:1001D00069837A838B839C838DE061E00E94D90BD5
:1001E0000E94670A29813A814B815C81621B730BF3
:1001F000840B950B621573058405950588F383E1DF
:100200000E942D0C892B69F48BEC9AEFAFEFBFEFB6
:10021000A80EB91ECA1EDB1E0894E11CF11C011DAC
:10022000111D82E10E942D0C892B69F425E63DEF1A
:100230004FEF5FEFA20EB31EC41ED51E0894E11C43
:10024000F11C011D111D81E10E942D0C892B69F407
:100250008BE79FEFAFEFBFEFA80EB91ECA1EDB1EE4
:100260000894E11CF11C011D111D80E10E942D0C60
:10027000892B69F425E830E040E050E0A20EB31E7F
:10028000C41ED51E0894E11CF11C011D111D8FE038
:100290000E942D0C892B69F48BE992E0A0E0B0E07C
:1002A000A80EB91ECA1EDB1E0894E11CF11C011D1C
:1002B000111D8EE00E942D0C892B69F425E335E099
:1002C00040E050E0A20EB31EC41ED51E0894E11CEF
:1002D000F11C011D111D8DE060E00E94D90B42014F
:1002E0003101660C771C881C991C0E94670A2981C1
:1002F0003A814B815C81621B730B840B950B6615F5
:1003000077058805990588F385E090E0A0E0B0E0E6
:10031000280E391E4A1E5B1E99E629163104410437
:10032000510409F053CFE114F1040105110529F43A
:1003300028EB32E240E050E00AC0C601B501A80156
:1003400097010E94C20CC901DA019C01AD01B901FB
:10035000CA010F900F900F900F90CF91DF911F91D6
:100360000F91FF90EF90DF90CF90BF90AF909F9054
:100370008F907F906F905F904F903F902F90089557
:100380002F923F924F925F926F927F928F929F92A5
:10039000AF92BF92CF92DF92EF92FF920F931F9393
:1003A000DF93CF9300D000D0CDB7DEB7809183012B
:1003B000823008F044C0F894A8E7B1E0ED91FD91D7
:1003C0008081ED91FD919081ED91FD916C91637033
:1003D0008E2309F064609F2309F06860EAEFF1E082
:1003E000E60FF11D659565956D936D917D918D91EC
:1003F0009D91099423C01AC012C016C010C01EC01F
:1004000009C014C013C006C019C009C00DC007C080
:100410000DC014C062507040804090400BC06150CD
:1004200070408040904006C06E5F01C06F5F7F4F9C
:100430008F4F9F4F9E938E937E936E9301C0F8943F
:10044000789480917F0190918001A0918101B09179
:10045000820122273327A901281B390B4A0B5B0B8A
:1004600029833A834B835C8380918F01823008F02B
:1004700044C0F894A4E8B1E0ED91FD918081ED9144
:10048000FD919081ED91FD916C9163708E2309F047
:1004900064609F2309F06860E8E5F2E0E60FF11D73
:1004A000659565956D936D917D918D919D91099463
:1004B00023C01AC012C016C010C01EC009C014C08C
:1004C00013C006C019C009C00DC007C00DC014C0BC
:1004D00062507040804090400BC06150704080403E
:1004E000904006C06E5F01C06F5F7F4F8F4F9F4F80
:1004F0009E938E937E936E9301C0F8947894E090CF
:100500008B01F0908C0100918D0110918E0110955E
:100510000095F094E094E11CF11C011D111D8091E7
:10052000200190912101A0912201B0912301A98085
:10053000BA80CB80DC80A81AB90ACA0ADB0AA0926A
:100540001001B0921101C0921201D092130180915A
:10055000240190912501A0912601B0912701370136
:100560004801681A790A8A0A9B0A609214017092FB
:1005700015018092160190921701C401B3016A0D12
:100580007B1D8C1D9D1D22E030E040E050E00E946C
:10059000C20C19012A0120921801309219014092CF
:1005A0001A0150921B0189819A81AB81BC81809391
:1005B000200190932101A0932201B0932301E092A6
:1005C0002401F09225010093260110932701209128
:1005D00028013091290140912A0150912B012A0DC7
:1005E0003B1D4C1D5D1D2093280130932901409334
:1005F0002A0150932B0180912C0190912D01A09103
:100600002E01B0912F01860D971DA81DB91D809355
:100610002C0190932D01A0932E01B0932F01B7FFD1
:1006200007C0B095A095909581959F4FAF4FBF4F54
:1006300057FF07C050954095309521953F4F4F4F3C
:100640005F4F820F931FA41FB51FB595A795979570
:10065000879580931C0190931D01A0931E01B09378
:100660001F018091500190915101A0915201B091D0
:10067000530182199309A409B509809350019093FD
:100680005101A0935201B0935301609130017091D8
:1006900031018091320190913301620D731D841DEF
:1006A000951D6093300170933101809332019093D6
:1006B000330128EE33E040E050E00E94810C28EE48
:1006C0003DE040E050E00E94C20C20935401309382
:1006D000550140935601509357010F900F900F9082
:1006E0000F90CF91DF911F910F91FF90EF90DF90CE
:1006F000CF90BF90AF909F908F907F906F905F90C2
:100700004F903F902F9008956F927F928F929F927B
:10071000AF92BF92CF92DF92EF92FF920F931F930F
:100720003B014C01C901BA0197FC05C06114710479
:100730008104910429F4E1E06E2E712C812C912C1E
:10074000DB015C016D01D7FE08C0D094C094B09469
:10075000A094A11CB11CC11CD11CC701D8017C01F3
:100760008D0117FF08C010950095F094E094E11CEE
:10077000F11C011D111DC601B501A60195010E94C4
:10078000810C5B016C01C801B701A80197010E94AF
:10079000810CA61AB70AC80AD90AA4019301220F2C
:1007A000331F441F551FC601B5010E94C20CC90169
:1007B000DA019C01AD01121613061406150694F019
:1007C000C401B3012EEF3FEF4FEF5FEF0E94810CAA
:1007D0009B01AC01C601B5010E94C20CC901DA013E
:1007E0009C01AD01B901CA011F910F91FF90EF90DB
:1007F000DF90CF90BF90AF909F908F907F906F9041
:1008000008956F927F928F929F92AF92BF92CF92F4
:10081000DF92EF92FF920F931F9380915C01909172
:100820005D01A0915E01B0915F0120915001309176
:10083000510140915201509153010097A105B1051A
:1008400009F078C0A0904801B0904901C0904A01D9
:10085000D0904B01609060017090610180906201C6
:1008600090906301CA01B901A60195018401730149
:100870000E94840320916C0130916D0140916E01C2
:1008800050916F01261737074807590744F46092C3
:1008900058017092590180925A0190925B01E09048
:1008A0005801F090590100915A0110915B01AE146A
:1008B000BF04C006D106DCF4809168019091690103
:1008C000A0916A01B0916B018A0D9B1DAC1DBD1DED
:1008D0008093480190934901A0934A01B0934B0142
:1008E000E816F9060A071B070CF098C01AC0EA14AC
:1008F000FB040C051D050CF091C0D601C501821B3F
:10090000930BA40BB50B8093480190934901A093DE
:100910004A01B0934B018E159F05A007B1070CF05B
:100920007DC0E0924801F092490100934A01109382
:100930004B0174C0A0904C01B0904D01C0904E018D
:10094000D0904F01609064017090650180906601C5
:1009500090906701CA01B901A60195018401730154
:100960000E948403209174013091750140917601B9
:1009700050917701261737074807590744F46092CA
:100980005C0170925D0180925E0190925F01E09047
:100990005C01F0905D0100915E0110915F01AE1469
:1009A000BF04C006D106D4F480917001909171010A
:1009B000A0917201B09173018A0D9B1DAC1DBD1DEC
:1009C00080934C0190934D01A0934E01B0934F0141
:1009D000E816F9060A071B070CF518C0EA14FB0411
:1009E0000C051D05DCF4D601C501821B930BA40B7D
:1009F000B50B80934C0190934D01A0934E01B093A1
:100A00004F018E159F05A007B10744F4E0924C01F9
:100A1000F0924D0100934E0110934F011F910F91E1
:100A2000FF90EF90DF90CF90BF90AF909F908F900E
:100A30007F906F9008956F927F928F929F92AF9266
:100A4000BF92CF92DF92EF92FF920F931F9360902D
:100A50001401709015018090160190901701A090DC
:100A60001001B0901101C0901201D09013010E94AA
:100A7000C5009B01AC01283B82E2380780E04807B3
:100A800080E0580741F420914401309145014091A4
:100A90004601509147012093440130934501409312
:100AA000460150934701E0904801F09049010091C0
:100AB0004A0110914B018091380190913901A09128
:100AC0003A01B0913B01E80EF91E0A1F1B1FEA18FC
:100AD000FB080C091D09E618F70808091909E09236
:100AE0003801F092390100933A0110933B01609173
:100AF0004C0170914D0180914E0190914F01621B0C
:100B0000730B840B950B60934001709341018093AC
:100B1000420190934301E0923401F0923501009339
:100B200036011093370160933C0170933D0180932F
:100B30003E0190933F01EE0CFF1C001F111F2AE0A5
:100B400030E040E050E00E94C20CB9016E0D7F1D04
:100B5000C701821B930B0E948D001F910F91FF9084
:100B6000EF90DF90CF90BF90AF909F908F907F904D
:100B70006F9008950E94C0010E9401040E941B050D
:100B80000895A0919001B0919101ED91FD91808126
:100B9000ED91FD919081ED91FD916C9163708E23AB
:100BA00009F064609F2309F06860E1EEF5E0E60F6C
:100BB000F11D659565956D936D917D918D919D91DB
:100BC000099423C01AC012C016C010C01EC009C0AC
:100BD00014C013C006C019C009C00DC007C00DC0A5
:100BE00014C062507040804090400BC06150704013
:100BF0008040904006C06E5F01C06F5F7F4F8F4F97
:100C00009F4F9E938E937E936E930895A091920131
:100C1000B0919301ED91FD918081ED91FD919081D5
:100C2000ED91FD916C9163708E2309F064609F23B8
:100C300009F06860E6E2F6E0E60FF11D659565955E
:100C40006D936D917D918D919D91099423C01AC0F2
:100C500012C016C010C01EC009C014C013C006C008
:100C600019C009C00DC007C00DC014C0625070404B
:100C7000804090400BC0615070408040904006C062
:100C80006E5F01C06F5F7F4F8F4F9F4F9E938E931C
:100C90007E936E930895823021F0833079F080E066
:100CA0000895709391016093900180E061EC75E08C
:100CB00041E050E00E94930981E008957093930110
:100CC0006093920181E066E076E041E050E00E94AE
:100CD000930981E008950F931F93CF93DF93EC0165
:100CE000162F042F862F62E00E949A0B802F62E05D
:100CF0000E949A0B212F30E0F901EA57FF4FE4914F
:100D0000F0E0EE0FFF1FE458FF4F85919491998317
:100D1000888326563F4FF90184918C83202F30E041
:100D2000F901EA57FF4FE491F0E0EE0FFF1FE4589E
:100D3000FF4F859194919B838A8326563F4FF901FB
:100D400084918D831F82188619861A8680ED97E01C
:100D50000E948D0AE881F981208140E030E08C8199
:100D600090E028233923232B09F041E0EA81FB811D
:100D7000208130E08D8190E028233923232B09F056
:100D800042604E83812FBE010E944B06182F8B8735
:100D9000802FBE010E944B06180F1B87DF91CF9159
:100DA0001F910F91089588E791E062E044E00E946E
:100DB0006B0684E891E063E045E00E946B060895CD
:100DC000EF92FF920F931F930E94670A7B018C01A1
:100DD0000E94BA050E94670A6E197F09800B910B69
:100DE0006051774280409040A8F31F910F91FF908F
:100DF000EF9008958EE060E00E949A0B8FE060E033
:100E00000E949A0B80E160E00E949A0B81E160E011
:100E10000E949A0B82E160E00E949A0B83E160E0FD
:100E20000E949A0B8DE061E00E949A0B80E060E0E6
:100E30000E949A0B81E061E00E949A0B86E061E0DB
:100E40000E949A0B88E061E00E949A0B87E061E0C3
:100E50000E949A0B8BE061E00E949A0B89E061E0AE
:100E60000E949A0B8AE061E00E949A0B8CE060E09D
:100E70000E949A0B84E991E040E052EC61E070E05E
:100E80000E9406088CE00E942D0C892BD9F368EE95
:100E900073E080E090E00E94D20A81E190E0A0E05F
:100EA000B0E08093580190935901A0935A01B093F8
:100EB0005B0181E090E0A0E0B0E080936C01909352
:100EC0006D01A0936E01B0936F01809368019093C0
:100ED0006901A0936A01B0936B018FEE96EBA0E0DD
:100EE000B0E08093500190935101A0935201B093D0
:100EF0005301F89410927F011092800110928101A9
:100F0000109282017894F89410928B0110928C01C7
:100F100010928D0110928E017894089508951F9279
:100F20000F920FB60F9211242F933F934F938F93ED
:100F30009F93EF93FF938091C00082FD19C0409171
:100F4000C6008091B201282F30E02F5F3F4F2F73F2
:100F500030708091B30190E02817390759F0E09183
:100F6000B201F0E0EC56FE4F42A32093B20102C062
:100F70008091C600FF91EF919F918F914F913F918A
:100F80002F910F900FBE0F901F9018958091B20176
:100F90002091B30190E0805C9F4F821B91098F7379
:100FA0009070892B11F00E948E0708951F920F9266
:100FB0000FB60F9211242F938F939F93EF93FF936C
:100FC0009091B4018091B501981731F48091C100DE
:100FD0008F7D8093C10010C0E091B501F0E0EA5030
:100FE000FE4F20818091B50190E001968F73907043
:100FF0008093B5012093C600FF91EF919F918F914F
:101000002F910F900FBE0F901F901895AF92BF9227
:10101000DF92EF92FF920F931F93CF93DF93EC0138
:101020007A018B01DD24403081EE580780E06807AB
:1010300080E0780711F0DD24D39491E0A92EB12C43
:10104000E889F989DD2069F0C5010C8C02C0880FA0
:10105000991F0A94E2F7808360E079E08DE390E0E5
:1010600005C0108260E874E88EE190E0A801970165
:101070000E94A00C2150304040405040569547956A
:101080003795279580E12030380720F0DD2011F0DA
:10109000DD24D6CFEC85FD853083EE85FF8520836A
:1010A0001D8EEA89FB89408121E030E0C901088C6E
:1010B00002C0880F991F0A94E2F7482B4083EA89FF
:1010C000FB894081C901098C02C0880F991F0A94CD
:1010D000E2F7482B4083EA89FB894081C9010A8CE9
:1010E00002C0880F991F0A94E2F7482B4083EA89CF
:1010F000FB8980810B8C02C0220F331F0A94E2F718
:10110000209528232083DF91CF911F910F91FF908D
:10111000EF90DF90BF90AF900895FC01268D878DF2
:1011200030E0205C3F4F281B31092F733070C9011C
:101130000895FC01968D878D981719F42FEF3FEFD6
:1011400006C0878DE80FF11D82A1282F30E0C9016C
:101150000895DC015E969C915E975F968C915F97F7
:10116000981719F42FEF3FEF10C05F968C915F979F
:10117000FD01E80FF11D92A15F968C915F978F5F43
:101180008F735F968C93292F30E0C9010895DC019D
:101190005D968C915D97882339F05096ED91FC9186
:1011A0005197808186FFF9CF5D961C920895DC01EE
:1011B00090968C919097282F30E02F5F3F4F2F73A0
:1011C000307091968C91919790E028173907C9F368
:1011D00090968C919097FD01E80FF11DEE59FF4F0D
:1011E000608390962C9390975296ED91FC91539733
:1011F000208181E090E05B960C905B9702C0880FA5
:10120000991F0A94E2F7282B208381E05D968C9346
:101210005D975096ED91FC91519780818064808319
:1012200081E090E00895109297011092960188EE67
:1012300093E0A0E0B0E08093980190939901A0938F
:101240009A01B0939B0184E091E090939501809383
:1012500094011092B5018091B5018093B401109270
:10126000B3018091B3018093B20185EC90E090933B
:10127000A1018093A00184EC90E09093A30180935E
:10128000A20180EC90E09093A5018093A40181ECF1
:1012900090E09093A7018093A60182EC90E0909358
:1012A000A9018093A80186EC90E09093AB01809314
:1012B000AA0184E08093AC0183E08093AD0187E0D4
:1012C0008093AE0185E08093AF0181E08093B0010F
:1012D0000895CF92DF92EF92FF920F931F93CF93D7
:1012E000DF937C016B018A01C0E0D0E00FC0D60122
:1012F0006D916D01D701ED91FC910190F081E02D90
:10130000C7010995C80FD91F0150104001151105DB
:1013100071F7CE01DF91CF911F910F91FF90EF9068
:10132000DF90CF900895823000F5E82FF0E0EE0FC7
:10133000FF1FEA5CFD4F71836083882319F08130C1
:10134000A1F408C0809169008C7F842B8093690090
:10135000E89A089580916900440F551F440F551F66
:10136000837F842B80936900E99A08951F920F92DE
:101370000FB60F9211242F933F934F935F936F9368
:101380007F938F939F93AF93BF93EF93FF9380913E
:10139000360290913702892B29F0E0913602F091C4
:1013A00037020995FF91EF91BF91AF919F918F9176
:1013B0007F916F915F914F913F912F910F900FBE51
:1013C0000F901F9018951F920F920FB60F92112435
:1013D0002F933F934F935F936F937F938F939F933D
:1013E000AF93BF93EF93FF938091380290913902AE
:1013F000892B29F0E0913802F09139020995FF918B
:10140000EF91BF91AF919F918F917F916F915F917C
:101410004F913F912F910F900FBE0F901F901895F5
:10142000CF93DF930E94970A0E94FA06C6ECD7E09A
:101430000E94E0062097E1F30E94C607F9CF1F92B1
:101440000F920FB60F9211242F933F938F939F9378
:10145000AF93BF9380913E0290913F02A0914002D2
:10146000B0914102309142020196A11DB11D232F7E
:101470002D5F2D3720F02D570196A11DB11D209312
:10148000420280933E0290933F02A0934002B093A9
:10149000410280913A0290913B02A0913C02B091AE
:1014A0003D020196A11DB11D80933A0290933B022B
:1014B000A0933C02B0933D02BF91AF919F918F9159
:1014C0003F912F910F900FBE0F901F9018959FB7CF
:1014D000F89420913A0230913B0240913C025091A5
:1014E0003D0286B5A89B06C08F3F21F02F5F3F4F7E
:1014F0004F4F5F4F9FBF542F432F322F2227280F6C
:10150000311D411D511D82E0220F331F441F551F05
:101510008A95D1F7B901CA010895019739F0880F6A
:10152000991F880F991F02970197F1F708957894F2
:1015300084B5826084BD84B5816084BD85B58260D8
:1015400085BD85B5816085BDEEE6F0E08081816076
:101550008083E1E8F0E01082808182608083808176
:1015600081608083E0E8F0E0808181608083E1EB4E
:10157000F0E0808184608083E0EBF0E08081816036
:101580008083EAE7F0E080818460808380818260EC
:1015900080838081816080838081806880831092D5
:1015A000C1000895EF92FF920F931F93CF93DF93A3
:1015B0007B018C013FB7F89480913A0290913B02F5
:1015C000A0913C02B0913D0226B5A89B05C02F3FDB
:1015D00019F00196A11DB11D3FBFBA2FA92F982F59
:1015E0008827820F911DA11DB11D52E0880F991F00
:1015F000AA1FBB1F5A95D1F7EC0130C00E94800C86
:101600003FB7F89480913A0290913B02A0913C023E
:10161000B0913D0226B5A89B05C02F3F19F0019659
:10162000A11DB11D3FBFBA2FA92F982F8827820F68
:10163000911DA11DB11D32E0880F991FAA1FBB1F6C
:101640003A95D1F78C1B9D0B885E9340B8F20894B5
:10165000E108F10801091109C851DC4FE114F10456
:101660000105110559F6DF91CF911F910F91FF9060
:10167000EF9008951F93CF93DF93182FEB0161E054
:101680000E949A0B209709F44AC0CF3FD10509F474
:1016900049C0E12FF0E0E255FF4F84918330C1F063
:1016A000843028F4813051F08230B1F50CC086309E
:1016B00019F1873049F1843079F514C084B5806818
:1016C00084BDC7BD33C084B5806284BDC8BD2EC093
:1016D00080918000806880938000D0938900C093BF
:1016E000880024C080918000806280938000D09325
:1016F0008B00C0938A001AC08091B00080688093EC
:10170000B000C093B30012C08091B000806280939B
:10171000B000C093B4000AC0C038D1051CF4812FBA
:1017200060E002C0812F61E00E94D90BDF91CF9170
:101730001F910895CF93DF93482F50E0CA0186563A
:101740009F4FFC0134914A575F4FFA0184918823DF
:1017500069F190E0880F991FFC01E859FF4FA591AE
:10176000B491FC01EE58FF4FC591D491662351F41A
:101770002FB7F8948C91932F909589238C9388811F
:1017800089230BC0623061F42FB7F8948C91932FAA
:10179000909589238C938881832B88832FBF06C0E3
:1017A0009FB7F8948C91832B8C939FBFDF91CF913F
:1017B0000895482F50E0CA0182559F4FFC012491A3
:1017C000CA0186569F4FFC0194914A575F4FFA0118
:1017D0003491332309F440C0222351F1233071F0B6
:1017E000243028F42130A1F0223011F514C0263025
:1017F000B1F02730C1F02430D9F404C080918000CA
:101800008F7703C0809180008F7D8093800010C00F
:1018100084B58F7702C084B58F7D84BD09C0809167
:10182000B0008F7703C08091B0008F7D8093B000AF
:10183000E32FF0E0EE0FFF1FEE58FF4FA591B4919C
:101840002FB7F894662321F48C919095892302C0D8
:101850008C91892B8C932FBF0895682F70E0CB015A
:1018600082559F4FFC012491CB0186569F4FFC016E
:1018700044916A577F4FFB019491992319F420E01A
:1018800030E03CC0222351F1233071F0243028F4A1
:101890002130A1F0223011F514C02630B1F02730EC
:1018A000C1F02430D9F404C0809180008F7703C048
:1018B000809180008F7D8093800010C084B58F77E9
:1018C00002C084B58F7D84BD09C08091B0008F7740
:1018D00003C08091B0008F7D8093B000892F90E08D
:1018E000880F991F84589F4FFC01A591B4918C914A
:1018F00020E030E0842311F021E030E0C9010895B8
:101900000895629FD001739FF001829FE00DF11D49
:10191000649FE00DF11D929FF00D839FF00D749F69
:10192000F00D659FF00D9927729FB00DE11DF91F15
:10193000639FB00DE11DF91FBD01CF011124089572
:10194000A1E21A2EAA1BBB1BFD010DC0AA1FBB1FC3
:10195000EE1FFF1FA217B307E407F50720F0A21B35
:10196000B30BE40BF50B661F771F881F991F1A94A2
:1019700069F760957095809590959B01AC01BD01CC
:10198000CF01089597FB092E05260ED057FD04D0F0
:10199000D7DF0AD0001C38F450954095309521953A
:1019A0003F4F4F4F5F4F0895F6F790958095709594
:1019B00061957F4F8F4F9F4F0895EE0FFF1F05904A
:0A19C000F491E02D0994F894FFCF94
:1019CA0000000000D70869098D08A9089908C70806
:00000001FF
